:020000040800F2
:10000000D8050020ED010008F3290008FB210008B5
:10001000F129000823080008B53D00080000000091
:10002000000000000000000000000000352D000866
:10003000710A000800000000F5290008652D00087D
:10004000070200080702000807020008070200086C
:10005000070200080702000807020008070200085C
:10006000070200080702000807020008070200084C
:10007000070200080702000807020008070200083C
:10008000070200080000000007020008070200083D
:10009000070200080702000807020008070200081C
:1000A000070200080702000807020008070200080C
:1000B00007020008070200080702000807020008FC
:1000C00007020008070200080702000807020008EC
:1000D00007020008A93D00080702000807020008FF
:1000E00007020008070200080702000807020008CC
:1000F00007020008070200080702000800000000CD
:1001000000000000070200080000000007020008CD
:1001100007020008000000000702000807020008AC
:10012000070200080702000807020008070200088B
:10013000070200080000000000000000070200089D
:10014000070200080702000800000000000000008D
:10015000000000000000000000000000000000009F
:10016000000000000000000000000000070200087E
:10017000070200080000000000000000000000006E
:10018000000000000702000800000000000000005E
:10019000000000000000000000000000000000005F
:1001A000000000000000000007020008070200082D
:1001B000070200080702000807020008000000000C
:1001C000000000000702000800000000000000001E
:1001D0000702000807020008DFF80CD000F0FCFA64
:1001E0000048004775480008D805002006488047A9
:1001F00006480047FEE7FEE7FEE7FEE7FEE7FEE70C
:10020000FEE7FEE7FEE7FEE7C52D0008D90100087E
:100210002DE9F05F0546002092469B46884606463B
:10022000814640241BE0284641464746224600F0CE
:10023000B1F953465A46C01A914110D31146184697
:10024000224600F098F92D1A67EB01084F46224626
:100250000120002100F08FF917EB00094E41201E0C
:10026000A4F10104DFDC484631462A464346BDE896
:10027000F09F40EA01039B0703D009E008C9121F61
:1002800008C0042AFAD203E011F8013B00F8013B50
:10029000521EF9D27047D2B201E000F8012B491E7C
:1002A000FBD270470022F6E710B513460A46044613
:1002B0001946FFF7F0FF204610BD2DE9FE4F80469E
:1002C00081EA0300C00F0C46009021F0004123F0AA
:1002D0000045B8EB0200A94105D2404621469046B0
:1002E0001C460B46024623F00040104347D0270D22
:1002F000C7F30A00C3F30A510290401A0190402844
:100300006BDAC3F3130040F4801B0098924620B1CF
:100310000023D2EB030A63EB0B0B01985946C0F1A3
:100320004002504600F027F906460D465046594611
:10033000019A00F03FF910EB08006141002487EAC0
:10034000115284EAE7731A4340D0009A62B3019ACB
:10035000012A4FEA075215DC001B61EB02014FF046
:10036000004202EA0752CDE90042001C41F580112B
:1003700032462B4600F03FF903B0BDE8F08F40460F
:100380002146F9E7001B61EB0201001C41F58013D7
:1003900000185B412018A2F5001747EB030140EA63
:1003A000D570B6196D4111E06D084FEA360645EA81
:1003B000C0754FEA0752001B61EB0201001C41F5BA
:1003C000801149084FEA30000019514132462B464E
:1003D00003B0BDE8F04F00F0FFB8009801224000E4
:1003E0000023D0EB020263EBE073009821464FEA52
:1003F000E074B8EB000061EB0401E9E783F000432F
:100400005BE781F0004158E72DE9F04D81EA0304F4
:1004100004F0004B21F0004514464FF0000A23F091
:10042000004150EA050220D054EA01021DD0C5F374
:100430000A570246C5F31303C1F31300C1F30A566A
:1004400040F4801543F48013A7EB0608101BD64632
:1004500008F2FD3873EB050002D308F1010801E052
:1004600092185B41B8F1000F03DA00200146BDE8A5
:10047000F08D00204FF48011064684460EE0171BD5
:1004800073EB050705D3121B63EB050306434CEA28
:10049000010C49084FEA300092185B4150EA01070D
:1004A000EDD152EA030012D082EA040083EA05018A
:1004B000084305D0101BAB4106D20122002306E001
:1004C00000224FF0004302E06FF0010253101AEBDC
:1004D00006004CEB085110EB0A0041EB0B01BDE8A4
:1004E000F04D00F079B870B5C1F30A5201F0004543
:1004F0000024C1F3130140F2FF3341F480119A420A
:1005000001DA002070BD40F233439A42A2F2334236
:1005100003DC524200F03EF800E090402C43F1D062
:10052000404270BD00F0004230F000400AD0C10DE2
:1005300001F56071C0F3160042EA0151C20840079C
:100540001143704700200146704730B50B46014605
:1005500000202022012409E021FA02F59D4205D362
:1005600003FA02F5491B04FA02F52844151EA2F10C
:100570000102F1DC30BD202A04DB203A00FA02F14E
:10058000002070479140C2F1200320FA03F3194381
:1005900090407047202A04DB203A21FA02F0002123
:1005A000704721FA02F3D040C2F120029140084383
:1005B00019467047202A06DBCB17203A41FA02F091
:1005C00043EAE07306E041FA02F3D040C2F12002B0
:1005D000914008431946704710B5141E73F100048A
:1005E00008DA401C41F1000192185B411A4301D125
:1005F00020F0010010BD2DE9F04D92469B4611B14F
:10060000B1FA81F202E0B0FA80F220329046FFF7B0
:10061000B2FF04460F4640EA0A0041EA0B01534686
:100620005A46084313D0114653EA010019D0C8F1C5
:1006300040025046FFF7AEFF05460E46504659466B
:100640004246FFF798FF084305D0012004E020460A
:100650003946BDE8F08D0020054346EAE0762C439C
:1006600037430A986305E40AA0EB08000022FD0A5C
:1006700044EA47540A3002D500200146E9E7010563
:1006800010196941DDE9084500196941BDE8F04DDF
:10069000A2E72DE9FE4F81EA030404F0004421F0B3
:1006A000004100944FF0000B23F0004350EA010496
:1006B0005ED052EA03045BD0C3F30A54C1F30A5577
:1006C0002C44A4F2F3340194A0FB0254C1F31301AF
:1006D00041F48011C3F3130343F4801301FB02447C
:1006E00000FB034E840A970A44EA815447EA835781
:1006F000A4FB076802958D0A05FB07854FEA932C3A
:1007000004FB0C542705029D4FEA065847EA1637AA
:10071000B5EB08056EEB070C870E920E47EA8117C2
:1007200042EA8312A7FB0201B6EB0B0164EB000463
:100730002B0D43EA0C335E1844EB1C50DA4651464D
:10074000E7FB0201C5F313044FEA0B3343EA1453EA
:100750004FEA0432019C43EA0603A4F10C0402941C
:10076000009CCDE900B4FFF746FF03B0BDE8F08F71
:1007700000200146F9E7C1F30A52C1F3130140F228
:10078000FF3341F480119A4202DA0020014670479B
:1007900040F233439A42A2F2334202DC5242FFF764
:1007A000F9BEFFF7E8BE000030B5041E71F1000489
:1007B00004DB4FF00044404264EB0101141E73F16E
:1007C000000405DB1C464FF00043524263EB040378
:1007D000994208BF904230BD064C074D06E0E068E4
:1007E00040F0010394E8070098471034AC42F6D378
:1007F000FFF7F6FC745C0008945C000810B500F08C
:100800002FFB02F0B1FA01F0BBFE02F08BF802F010
:100810003BF804F08BF801F0EDFFBDE8104004F068
:100820002DB8FEE7F0B5334B18465C7801783248B6
:100830009D78A0F1800254EA0507127800EB0106CA
:100840004ED0012C4FD0022C49D13A2A47D0002D4E
:1008500045D16FF02F04032906D2057A05EB8505F3
:1008600004EB450515440572CD1E022D06D2457ACE
:1008700005EB850504EB4505154445724D1F022D1A
:1008800006D2857A05EB850504EB4505154485728E
:10089000CD1F022D06D2C57A05EB850504EB450573
:1008A0001544C572A1F10905022D06D2057B05EBA1
:1008B000850504EB450515440573A1F10B05022DD3
:1008C00006D2457B05EB850504EB450422444273C3
:1008D0000D2904D300201870587001209870F0BDC5
:1008E00006F8012CF0BD3A2AFCD0002DFAD1F270A6
:1008F000F0BD00001C00002054010020344B30B536
:1009000018465C7801783348A0F18E0245181278B9
:10091000ECB3012C55D0022C4CD13A2A4AD09C7809
:10092000012C47D16FF02F04032906D2057A05EB7D
:10093000850504EB450515440572CD1E022D06D232
:10094000457A05EB850504EB4505154445724D1FB9
:10095000022D06D2857A05EB850504EB4505154485
:100960008572CD1F022D06D2C57A05EB850504EBF5
:1009700045051544C572A1F10905022D06D2057B76
:1009800005EB850504EB45051544057300E012E011
:10099000A1F10B05022D06D2457B05EB850504EB85
:1009A0004504224442730D2904D300201870587066
:1009B0000220987030BD98780128FBD105F8012CF1
:1009C00030BD3A2AFCD098780128F9D1EA7030BDC0
:1009D0001C0000206201002030B5134B1248012199
:1009E0005A7805789C781148DB78562D0ED0432D27
:1009F0000BD14E2A09D1422C07D1522B05D10C4BD9
:100A00001A78521C1A700171417130BD4E2AFCD106
:100A1000422CFAD1522BF8D1064B1A78521C1A707C
:100A20000171817130BD0000540100201C000020C4
:100A3000090000200A0000200B49002008704870BF
:100A40008870C870087148718871084908724872C6
:100A50008872C872087348730E31087248728872BF
:100A6000C8720873487370471C00002054010020AE
:100A70007047002240F6B83306E00021491C89B2D5
:100A80009942FBD3521C92B28242F6D370470000C7
:100A9000294810B5427A2949837A545C14FB023202
:100AA000C37A02EB420203EBC202007BC2EB0212EA
:100AB00000EB820220480E30437A847A595C11FBA5
:100AC0000341C37A01EB410103EBC101007BC1EBA0
:100AD000011100EB8100811A3C2291FBF2F002FB34
:100AE000101316480B38E3B191FBF2F302FB13131A
:100AF0001BB191FBF2F1491CC1714179012913D05D
:100B0000817901290CD1C17900EE101A0C49B8EE97
:100B1000400A00BFD1ED000A20EE200A80ED020A53
:100B200010BD91FBF2F1E7E7C17900EE101A05491B
:100B3000B8EE400AEEE70000540100202700002034
:100B4000140000201000002070B5002417A003F04E
:100B500033F9174D17A0295D03F02EF9641CE4B298
:100B6000042CF7D314A003F027F9002428190179E5
:100B700010A003F021F9641CE4B2042CF6D30EA0FB
:100B800003F01AF90D4C0EA0E17903F015F90AA053
:100B900003F012F9A068FFF7C5FCBDE8704041EC16
:100BA000100B08A053EC102B03F006B90A0000004C
:100BB00062010020256300003A0000001C000020B4
:100BC00025640000252E32660000000070B590F804
:100BD0002520002401212346022A07D00422C263D3
:100BE00080F8251080F82430012429E00268156877
:100BF00025F00E0515600268156825F001051560E1
:100C0000826C156825F48075156090F84420056C99
:100C100002F01F0201FA02F26A60D0E91325556062
:100C2000426D32B1156825F480751560D0E916253E
:100C3000556080F8251080F82430816B01B1884719
:100C4000204670BD70B5044600F0FCF80546601CF7
:100C500002D004484068044400F0F4F8401BA0426D
:100C6000FAD370BD340000202DE9FC4FDFF8A0A1BD
:100C7000002301250AF1040B03244FF00F0C0BF1A4
:100C8000040EBDE005FA03F632406FD04F68012F25
:100C900005D0022F03D0112F01D0122F17D1D0F879
:100CA00008905F0004FA07F829EA08090097D1F8CC
:100CB0000C8008FA07F848EA0908C0F80880476875
:100CC000B7430E79C6F300169E403E434660C668A1
:100CD0004FEA430804FA08F7BE4301978F6807FA02
:100CE00008F73743C7604E68022E01D0122E13D189
:100CF000DE0800EB86060096366A5F07FF0E0CFAE8
:100D000007F926EA0906D1F8109009FA07F949EA25
:100D10000609009EC6F820900668019FBE430F7921
:100D200007F0030707FA08F7374307604E68F60035
:100D300065D5384E376E47F001073766366E23F0BB
:100D4000030706F001060096334E3E44B146B668EE
:100D50009F074FEA17780CFA08F7BE43B0F1904F9F
:100D600005D02E4FB84204D1012717E047E00027F5
:100D700014E02B4FB84201D102270FE0294FB842AF
:100D800001D103270AE0284FB84201D1042705E02A
:100D9000264FB84201D1052700E0062707FA08F7D9
:100DA0003743C9F80870DAF800605746D1F8048074
:100DB00096435FEAC83800D516433E60DBF8006012
:100DC0005F46D1F8048096435FEA883800D5164321
:100DD0003E60DEF800607746D1F8048096435FEA13
:100DE000C82800D516433E60094F0C373E68D1F83D
:100DF000048096435FEA882800D516433E605B1C5A
:100E00000A6832FA03F67FF43DAFBDE8FC8F0000BC
:100E100000040140001002400000014000040048AE
:100E200000080048000C004800100048001400486A
:100E30000069084000D0012070470AB18161704705
:100E400081627047014880687047000034000020CC
:100E50000248816842681144816070473400002074
:100E600010B50024032000F0BBF8002000F008F8C3
:100E700008B1012401E000F025F8204610BD000073
:100E800070B50E4E05460024706898B14FF47A7123
:100E9000B1FBF0F00A490968B1FBF0F000F0A4FDE5
:100EA00040B9102D06D200222946501E00F078F8D5
:100EB000356000E00124204670BD000034000020B1
:100EC000400000200B4808B5016E41F001010166A9
:100ED000016E01F001010091816D41F08051816549
:100EE000806D00F0805000900348816841F480419B
:100EF000816008BD001002400070004070B51546CA
:100F00000E46040003D0D4F8800010B107E00120A1
:100F100070BD002084F87C00204601F039F82420C0
:100F2000C4F880002068016821F0010101602046BA
:100F300002F034FB0128EBD0A06A10B1204602F089
:100F40007DF92068416821F4904141602068816802
:100F500021F02A018160B5F5006F04D12068416855
:100F600066F31F6141602068016821F40061294334
:100F700001602068016841F0010101602046BDE880
:100F8000704002F0BFB9002809DB00F01F02012108
:100F900091404009800000F1E020C0F80011704746
:100FA000F0B40E4B1B680C46C3F30223C3F10705D4
:100FB000042D00D90425191D072901D2002300E0C2
:100FC000DB1E012606FA05F1491E214099409E408C
:100FD000761E16403143F0BC02F0FEBE0CED00E080
:100FE000064900F0070208684FF6FF03184040EA80
:100FF0000220034A10430860704700000CED00E037
:101000000000FA052B492C4B0A6832214A432B4930
:1010100040B1B0F5007F086829D020F4C06040F4EA
:1010200080602CE00868C0F34120022804D051F809
:10103000800F20F4807022E0D1F8800020F48070CE
:10104000C1F88000086820F4C06040F400700860B7
:10105000B2FBF3F0401C00E0401E4A69520501D586
:101060000028F9D1486940050AD503207047C0F32C
:101070004120022806D051F8800F40F480700860AB
:1010800000207047D1F8800040F48070C1F88000E3
:10109000086820F4C06040F400700860B2FBF3F010
:1010A000401C00E0401E4A695205DBD50028F9D1FA
:1010B000D8E700004000002040420F0000700040D0
:1010C0002DE9F8430446006800269D4D00035ED5D7
:1010D000A86D0027C00008D4A86D40F08050A86516
:1010E000A86D012700F080500090DFF85892D9F8E1
:1010F000001041F48071C9F80010FFF7A3FE80468C
:1011000006E000BFFFF79EFEA0EB080002282BD8E8
:10111000D9F80000C005F5D5D5F8900010F440705E
:1011200014D0216C814211D0D5F89000D5F89010E0
:1011300020F4407041F48031C5F89010D5F890103B
:1011400021F48031C5F89010C5F89000C00711D087
:10115000FFF778FE804641F2883907E0FFF772FE1C
:10116000A0EB0801494501D903260BE0D5F8900012
:101170008007F3D5D5F89000216C20F44070084327
:10118000C5F890001FB1A86D20F08050A8652078A8
:10119000C00707D0D5F88800616820F00300084335
:1011A000C5F888002078800707D5D5F88800A168A1
:1011B00020F00C000843C5F888002078400707D5C8
:1011C000D5F88800E16820F030000843C5F88800B1
:1011D0002078000707D5D5F88800216920F0C000E5
:1011E0000843C5F888002078800607D5D5F8880020
:1011F000616920F440600843C5F888002078400603
:1012000007D5D5F88800A16920F440500843C5F8F7
:1012100088002078000607D5D5F88800E16920F419
:1012200040400843C5F888002088C00507D5D5F898
:101230008800216A20F440300843C5F888002088DF
:10124000800507D5D5F88800616A20F4402008435E
:10125000C5F88800208840050FD5D5F88800A16A18
:1012600020F440100843C5F88800A06AB0F5801F3C
:1012700003D1E86840F48010E860208800050FD5AD
:10128000D5F88800E16A20F440000843C5F88800DA
:10129000E06AB0F5800F03D1E86840F48010E860A0
:1012A0002088C0040FD5D5F88800216B20F040704D
:1012B0000843C5F88800206BB0F1807F03D1E8684F
:1012C00040F48010E86020884FF0006180040ED563
:1012D000D5F88800626B20F040601043C5F88800A4
:1012E000606B884203D1E86840F48010E860208891
:1012F00040040ED5D5F88800A26B20F04060104362
:10130000C5F88800A06B884203D1E86840F48010DB
:10131000E860208800040FD5D5F88800E16B20F044
:1013200040500843C5F88800E06BB0F1805F03D1FE
:10133000E86840F48030E8603046BDE8F88300009B
:1013400000100240007000402DE9F0470E460500F5
:101350004FF0000725D0DFF8AC81D8F8000000F08E
:101360000F00B0420CD2D8F8001021F00F01314329
:10137000C8F80010D8F8000000F00F00B04210D1FB
:101380002968614CC80741F2883A5AD06868DFF88A
:101390007C91032808D0022820682DD04005002821
:1013A0002CDB0120BDE8F08720688001F9D5E068DA
:1013B00000F00302E068C0F30310401C032A19D0B8
:1013C000534A00BFB2FBF0F0E268C2F3062250437A
:1013D000E268C2F34162521C5200B0FBF2F0484591
:1013E00017D9A06810F0F00F0CD0880711D5A868A5
:1013F00040B10EE0474AE5E78003D0E700F0B6F8D9
:10140000484506D9A06820F0F00040F08000A060B8
:101410008027A068696820F003000843A060FFF7F8
:1014200011FD814606E000BFFFF70CFDA0EB0901AE
:1014300051453AD8A068696800F00C00B0EB810F04
:10144000F2D12868810714D5400703D5A06840F47D
:10145000E060A0602878000705D5A06820F46050FF
:1014600040F4E060A060A068A96820F0F0000843A4
:1014700004E0802F03D1A06820F0F000A060D8F82D
:101480000010404601F00F01B14216D9016821F069
:101490000F0131430160FFF7D5FC074607E000BFAD
:1014A000FFF7D0FCC11B514501D903207AE7D8F8DA
:1014B000000000F00F00B042F2D12878400705D5B7
:1014C000A068E96820F4E0600843A060287800077D
:1014D00006D5A068296920F4605040EAC100A060E8
:1014E00000F044F8A1680C4AC1F30311515C01F00B
:1014F0001F01C8400949086009480068BDE8F04775
:10150000FFF7BEBC002002400010024000B4C4043B
:101510000024F40000366E015C5C000840000020EE
:10152000340000200548064900688968054AC1F36F
:101530000221515C01F01F01C840704740000020AB
:10154000001002406C5C0008054806490068896884
:10155000054AC1F3C221515C01F01F01C840704728
:1015600040000020001002406C5C0008184910B5D3
:101570008868C0F381021748012A0BD08A68164B8D
:10158000C2F38102022A06D08A68C2F38102032ACA
:1015900003D0002010BD184610BDCA6802F0030435
:1015A000CA68C2F30312521C032C02D0B0FBF2F043
:1015B00001E0B3FBF2F0CA68C968C2F306225043E7
:1015C000C1F34161491C4900B0FBF1F010BD0000BE
:1015D000001002400024F40000366E012DE9F843AB
:1015E00004007AD02078FA4DC00747D0A868E9688F
:1015F00000F00C0001F003010C2802D0082817D0DD
:1016000001E0032914D06068B0F5803F17D0B0F531
:10161000A02F286817D020F480302860286820F494
:10162000802028606068E0B1FFF70CFC064614E0FB
:101630002868800322D560680028D2D01EE0286880
:1016400040F48030EDE740F480202860F7E700BFE9
:10165000FFF7F8FB801B642870D828688003F7D553
:101660000CE0FFF7EFFB064605E000BFFFF7EAFBE3
:10167000801B6428F0D828688003F7D4207880077E
:101680004CD5A868E96800F00C0001F003010C28B3
:1016900002D004280DD001E002290AD0E068002819
:1016A00028682BD040F480702860FFF7CBFB0646FB
:1016B00019E02868400502D5E068002891D06868E4
:1016C000217C20F0FE4040EA01606860C14800686B
:1016D000FFF7D6FB002800D120E076E1FFF7B2FB50
:1016E000801B0228B8D828684005F7D56868217C97
:1016F00020F0FE4040EA016068600FE020F4807056
:101700002860FFF79FFB064605E000BFFFF79AFB46
:10171000801B0228A0D828684005F7D4207800074D
:1017200029D560690028D5F8940013D040F0010055
:10173000C5F89400FFF786FB064606E090E000BF80
:10174000FFF780FB801B022886D8D5F8940080071D
:10175000F6D510E020F00100C5F89400FFF772FB09
:10176000064604E0FFF76EFB801B022878D8D5F808
:1017700094008007F6D42078400761D5A86D002634
:10178000C00008D4A86D40F08050A865A86D01265F
:1017900000F08050009090480168C90511D401689C
:1017A000804641F480710160FFF74CFB074604E07E
:1017B000FFF748FBC01B022852D8D8F80000C0052C
:1017C000F6D5A068012815D00528D5F8900016D0C8
:1017D00020F00100C5F89000D5F8900020F004003A
:1017E000C5F89000A06841F28838B8B1FFF72AFB2D
:1017F00007460EE0D5F8900040F00100F0E740F019
:101800000400C5F89000F5E7FFF71CFBC11B41453C
:1018100026D8D5F890008007F6D50CE0FFF712FB2C
:10182000074604E0FFF70EFBC11B414518D8D5F869
:1018300090008007F6D41EB1A86D20F08050A865F6
:101840002078800629D5A0690028D5F8980013D003
:1018500040F00100C5F89800FFF7F4FA064606E0EC
:1018600077E000BFFFF7EEFA801B022877D8D5F8A3
:1018700098008007F6D510E020F00100C5F8980028
:10188000FFF7E0FA064604E0FFF7DCFA801B0228C7
:1018900065D8D5F898008007F6D4E069F0B3A96858
:1018A000C1F38101032961D00228286820F08070EB
:1018B00028600BD0E86820F00300E860E86847493A
:1018C0000840E860FFF7BEFA04464BE0FFF7BAFABB
:1018D000064604E0FFF7B6FA801B02283FD82868C6
:1018E0008001F7D4F4E908016FF00F0202EB011157
:1018F0000843218A5204490802EB4151A26841EA97
:1019000002210843217D4FF07E42490802EB4161EC
:101910000843217B40EAC160E96800E062E0304AA8
:1019200011400843E860286840F080702860E8684B
:1019300040F08070E860FFF785FA044605E000BFDC
:10194000FFF780FA001B022809D828688001F7D524
:1019500048E004E0FFF776FA001B022802D90320D2
:10196000BDE8F88328688001F4D43BE00128F7D073
:10197000E868226A00F00301914226D1616A00F012
:10198000F0020901103991421FD1A26A00F4FE4110
:10199000B1EB022F19D194F82C2000F07841B1EB73
:1019A000C26F12D1218E00F4C00249084905A1F589
:1019B0000011914209D194F8341000F0C060490838
:1019C0004906A1F1007181420CD00120C8E7000056
:1019D000001002403400002000700040FFFFEEFEC7
:1019E0000C809F010020BBE710B5401EB0F1807F46
:1019F00001D3012010BD4FF0E02460610F2160177A
:101A000002F0EAF90020A06107202061002010BD4B
:101A100010B5040003D094F83D0010B107E0012098
:101A200010BD002084F83C00204600F022F802207F
:101A300084F83D00211D206801F0D2F9012084F8CE
:101A4000480084F83E0084F83F0084F8400084F8A1
:101A5000410084F8420084F8430084F8440084F88C
:101A6000450084F8460084F8470084F83D000020D3
:101A700010BD704770B5044690F83C000D46012833
:101A80000BD0012084F83C000C2A45D007DC5AB169
:101A9000042A1BD0082A78D12CE0022070BD102A1D
:101AA0004ED0142A71D15DE0206801F0FFF9206862
:101AB000816941F0080181612068816921F0040198
:101AC0008161206881692A69114311E0206801F071
:101AD0003BFA2068816941F4006181612068816975
:101AE00021F480618161206881692A6941EA0221CB
:101AF00081614AE0206801F06FFA2068C16941F015
:101B00000801C1612068C16921F00401C161206838
:101B1000C1692A69114311E0206801F0A5FA206823
:101B2000C16941F40061C1612068C16921F480612B
:101B3000C1612068C1692A6941EA0221C16124E0CA
:101B4000206801F0D9FA2068016D41F008010165B3
:101B50002068016D21F0040101652068016D2A698A
:101B6000114311E0206801F0FFFA2068016D41F493
:101B7000006101652068016D21F4806101652068C4
:101B8000016D2A6941EA02210165002084F83C00C8
:101B900070BD000010B50446022269B1042912D0BC
:101BA000082917D00C291CD0102921D094F8430003
:101BB000012824D0012010BD94F83E000128F9D15D
:101BC00084F83E201DE094F83F000128F2D184F80B
:101BD0003F2016E094F840000128EBD184F8402023
:101BE0000FE094F841000128E4D184F8412008E096
:101BF00094F842000128DDD184F8422001E084F805
:101C000043200122206801F043F9114920688842ED
:101C10000BD01049884208D00F49884205D00F499F
:101C2000884202D00E49884203D1416C41F4004100
:101C30004164206881680B4A1140062906D0B1F53D
:101C4000803F03D0016841F001010160002010BD18
:101C5000002C01400034014000400140004401409C
:101C6000004801400700010030B504460D460068F9
:101C7000002201F00DF9224B41F2111120688A0077
:101C800098420BD01F4B984208D01F4B984205D06A
:101C90001E4B984202D01E4B984209D1036A0B4258
:101CA00006D1036A134203D1436C23F40043436417
:101CB0002068036A0B4206D1016A114203D1016810
:101CC00021F00101016001205DB1042D0CD0082D2F
:101CD0000DD00C2D0ED0102D0FD084F84300002015
:101CE00030BD84F83E00FAE784F83F00F7E784F857
:101CF0004000F4E784F84100F1E784F84200EEE7A1
:101D0000002C0140003401400040014000440140EB
:101D10000048014090F87C10012918D0012180F87A
:101D20007C102421C0F8801050F8601B0A680B68F2
:101D300023F001030B6022F000510022426050F8B2
:101D4000603C196020210162027710467047022032
:101D50007047704770B5044690F87C0001281DD08C
:101D6000012084F87C002420C4F8800020680568E5
:101D7000026822F0010202602068826822F060623C
:101D80000A438260204601F027FA2068056020207F
:101D9000C4F88000002084F87C0070BD022070BD73
:101DA00070B5044690F87C0001281DD0012084F80D
:101DB0007C002420C4F8800020680568026822F0B6
:101DC000010202602068826822F060420A43826059
:101DD000204601F001FA206805602020C4F8800048
:101DE000002084F87C0070BD022070BD70477047F1
:101DF000704700002DE9F04103680446D8691A686D
:101E0000996810F00F0F4FF0000569D05E4E02F494
:101E100090770E4037437DD0C70709D0D70507D547
:101E200001271F62D4F8883043F00103C4F88830DA
:101E300083070AD5CB0708D0276802233B62D4F872
:101E4000883043F00403C4F8883043070AD5CB0731
:101E500008D0276804233B62D4F8883043F002039B
:101E6000C4F8883003070CD502F02003334308D0B0
:101E7000266808233362D4F8883043F00803C4F896
:101E80008830D4F88830002B3CD0800609D502F089
:101E9000200001F08051084303D0E16E09B12046D3
:101EA0008847D4F8880021688968490601D400076A
:101EB0002AD5204601F060FA2068816849061ED5BF
:101EC000816821F040018160A06FC0B12F4981631A
:101ED000A06FFEF77BFE002814D0A06F816B0AE094
:101EE000860617D502F0200601F080573E4311D038
:101EF000E16E24E02046BDE8F04108470AE02046B4
:101F0000FFF776FFBDE8F0812046FFF771FFC4F8C8
:101F10008850F7E7C60209D54E0207D54FF4801066
:101F200018622046BDE8F041FFF761BF060609D5FB
:101F300002F0800601F400010E4303D0216F002956
:101F4000D8D1DFE741060DD551060BD519682046DB
:101F500021F0400119602021C4F88010256700F0AD
:101F60004BF9CFE7010206D5510004D52046BDE864
:101F7000F041FFF73BBFC001C4D5002AC2DA2046BA
:101F8000BDE8F041FFF7E5BE010000106333000833
:101F90007047000070B5D0F88430202B6DD1B9B1F6
:101FA000B2B190F87C30012B67D0012380F87C30EF
:101FB0008165A0F85C20A0F85E200021C1668368DE
:101FC0004FF48056FF24B34207D1036913B11CE0DC
:101FD000012070BD40F2FF131DE07F259BB1B3F1DE
:101FE000805F15D0A0F86010C0F888102223C0F8D8
:101FF000843003689C6844F001049C60436EB3F134
:10200000005F0ED027E0036943B9A0F86040EBE71A
:1020100003691BB13F23A0F86030E5E7A0F86050EA
:10202000E2E7B0F86830934215D88268B24201D135
:10203000026972B1124AC26680F87C1001680A68AF
:1020400042F480720A600068816841F080518160CA
:102050000FE00C4AEFE78268B24201D1026952B147
:10206000094AC26680F87C100068016841F49071EA
:102070000160002070BD054AF3E7022070BD00003A
:10208000FD340008FD3300089D3400089D3300082E
:10209000224810B50078A8B3214C2078401C20704D
:1020A000204800783A2804D1002020706078401C35
:1020B0006070607848B92078042806D9194832231E
:1020C000052219A18C3800F039F8FEF717FCFEF74D
:1020D000A9FB207938B9FEF77FFC15480078012864
:1020E00001D102F06BFCA078022802D0032806D0B0
:1020F0000CE0FEF7CDFCFEF727FD0320A070FEF7F5
:102100009BFC03E0FFE70BA001F056FE0549BDE88C
:1021100010400122A1F18C00FFF73CBF0B00002012
:102120001C000020D40000204552524F52000000F5
:102130000800002046554C4C000000002DE9F843F3
:102140000446D0F880001F4616460D46202851D17F
:10215000DDB1D6B194F87C0001284BD0012084F881
:102160007C004FF00008C4F888802120C4F880006B
:102170001834FEF767FEA6878146E68754F8100CF0
:10218000183CB0F5805F03D004E00120BDE8F8837F
:10219000206910B12E46002510E000260EE08021B7
:1021A000204601F0CEFDB8B9C6B116F8010B216882
:1021B0008862B4F85600401EA4F85600B4F85600E1
:1021C0004B464FF0000200970028E8D14FF0400145
:1021D000204601F0B6FD30B10320D7E735F8020BF9
:1021E000C0F30800E3E72020C4F8800084F87C8076
:1021F0000020CBE70220C9E77047FEE700B585B0B5
:1022000014216846FEF74EF84FF6FF70009000204C
:102210000321CDE90201019069460248FEF724FD41
:1022200005B000BD0008004800B585B0142168461F
:10223000FEF738F84FF6FF70009001200190032060
:1022400003900020029069460248FEF70DFD05B09C
:1022500000BD00000008004870B500240646214675
:10226000204600F0EFF900F02DFA4FF49635304695
:1022700000F0FCF9641CAC42F9D370BD30B587B0F6
:1022800014216846FEF70EF81E48C16C41F00401A7
:10229000C164C16C01F004010591C16C41F0010100
:1022A000C164C16C01F001010591C16C41F00201F2
:1022B000C164C06C012500F0020005904FF4487025
:1022C000CDE9000500240394694602940E48FEF708
:1022D000CBFC280203940090CDE901544FF09044C8
:1022E00069462046FEF7C0FCFFF79EFFA06940F458
:1022F0008070A06104481830016841F408710160E1
:1023000007B030BD00100240000400482DE9F04342
:10231000002689B08146002A01DA524201260A24A9
:10232000581E40B26D46A44611E000BFB2FBF4F760
:10233000B4FBFCF804FB1727B7FBF8F730372F5432
:10234000A24206D304EB84046400401E40B200287D
:10235000ECDA1EB12D22401E40B22A542022041E67
:10236000A0F1010040B201DD2A54F8E70020E85452
:102370002A46484600F0C0F809B0BDE8F0830000E6
:102380002DE9F04F16462DED028B8BB08A46834621
:10239000B0EE408A18224C4905A8FDF76AFFB5EE59
:1023A000C08A0025F7EE000AF1EE10FA6C46B1463D
:1023B00008D22D20B1EE488A8DF800004FF00108B8
:1023C000641C01E04FF00008052E00D9052605A881
:1023D00000EB8600F2EE048A90ED000A30EE088AE7
:1023E00004E000BF60EEA80A6D1CEDB2B4EEE08A16
:1023F000F1EE10FAF6DA18EE100AB0F17E5F01DAAB
:10240000012700E02F4655BB302004F8010B29E0DE
:1024100010EE900AFEF786F89FED2C1B53EC112B63
:10242000FDF7F2FF9FED2B1B53EC112BFDF745FF42
:10243000FEF759F800EE100AF8EEC00A88EE200AFE
:10244000BCEEC00A10EE100AC0B200EE100A00F195
:10245000300104F8011BB8EE400A00EEC08A6D1E80
:10246000EDB2D5D20021BEB12E2004F8010B10E050
:1024700068EE280ABCEEE00A10EE100AC0B200EEC8
:10248000100A00F1300204F8012BB8EE400A30EED9
:10249000C08A761EF6B2EBD221706A465146584683
:1024A00000F02AF809EB070101EB080041420AEBB2
:1024B0000110103881B209A2584600F01DF80BB087
:1024C000BDEC028BBDE8F08F445C0008000000000A
:1024D00000002440000000000000E03F2020200019
:1024E000203AD2B2034B02EB420203EB021200F09D
:1024F00019B80000744A00082DE9F04115460E464F
:102500000746002407E031463846FFF7E9FF103E52
:10251000641CB6B26D1C2A78002A01D0142CF2D3A8
:10252000BDE8F0812DE9F04791468A460026044631
:1025300000F088F8DFF84480012700BF00F0C2F8FF
:102540005FF0000539F8160007FA05F10842404629
:1025500001D1408800E0008800F088F86D1C102D43
:10256000F0D3641CE4B25146204600F06BF8761CB0
:10257000182EE3D3BDE8F04700F024B90000002096
:1025800010B5FFF77BFE002000F014F8084CA08087
:10259000A088A0F50241303906D000F0CAFA002028
:1025A00000F008F8A08010BD00F03AFAF7E700004C
:1025B0000000002070B51D490A6842F400720A60EC
:1025C0000A6842F480720A60184C103C226842F09B
:1025D00020022260164A1060086840F0200008605F
:1025E00000BF00BF00BF206840F0200020602068CE
:1025F00040F480702060FFF701FE4FF09041886A40
:1026000040F48070886200BF00BF00BF0848001F10
:10261000006885B2886940F480708861FFF704FE25
:10262000206840F400702060284670BD28040048EF
:102630001408004801B5BDF800000149488008BDF4
:102640000000002010B50C460146202000F068F87C
:102650002146BDE81040212000F062B801B5BDF868
:1026600000000149088008BD00000020134A1168DD
:1026700041F400711160114910390B6843F4807303
:102680000B600B6843F020030B600D4B1860106863
:1026900040F02000106000BF00BF00BF086840F09D
:1026A00020000860086840F48070086000BF00BF28
:1026B00000BF086840F400700860704728040048B4
:1026C000140800481449086840F40070086008685D
:1026D00040F48070086010481038026842F0200210
:1026E00002600E4B22221A600A6842F020020A6041
:1026F00000BF00BF00BF016841F020010160016818
:1027000041F48071016000BF00BF00BF016841F467
:102710000071016070470000280400481408004858
:10272000184B10B51A6842F400721A601A6842F425
:1027300080721A60134A103A146844F0200414603E
:10274000114C2060186840F02000186000BF00BFE6
:1027500000BF106840F020001060106840F48070E6
:1027600010602160186840F02000186000BF00BFB2
:1027700000BF106840F020001060106840F48070C6
:10278000106010BD28040048140800480448007870
:1027900000284FF0010001D002F04CB802F02AB836
:1027A0000B00002006480078012804D0002805D13D
:1027B000022002F01FB8022002F03CB8704700006F
:1027C0000D00002010B501224FF6FF710748FEF7FB
:1027D00034FB074C012204212046FEF72EFB204645
:1027E0000022BDE810400421FEF727BB0008004886
:1027F000000C0048F0B587B014216846FDF752FD83
:102800001E48C16C41F00401C164C16C01F00401B7
:102810000591C16C41F02001C164C16C01F020013F
:102820000591C16C41F00801C164C06C144E00F008
:1028300008004FF47F440590002221463046FEF701
:10284000FCFA104F002204213846FEF7F6FA012563
:10285000CDE9004500240294694630460394FEF712
:1028600003FA04200090CDE90154694638460394E8
:10287000FEF7FAF9FFF7A6FF07B0F0BD001002401F
:1028800000080048000C004830B587B014216846A5
:10289000FDF708FD2048016E41F480210166016EBC
:1028A00001F480210591C16C41F00101C164C06C4B
:1028B0001A4900F0010005901948002480250160A4
:1028C0005021C0E901144FF4FA71C0E90314C0E9C2
:1028D0000545FFF79DF802200095CDE9010403208E
:1028E00003900120049069464FF09040FEF7BCF938
:1028F0000B4860214C3000228460C4600461016098
:102900006421416001464C38FFF7B4F800210448C7
:10291000FFF740F907B030BD001002400048014009
:102920007001002010B598B0142111A8FDF7BAFC71
:1029300044216846FDF7B6FC01200024CDE90004DF
:102940006846FEF7BDFB2748016E41F480410166F1
:10295000016E01F480411691C16C41F00101C16426
:10296000C06C214900F0010016902048002201604F
:102970004FF41651C0E901140C21C460C0E90441B0
:102980008461C4610462446211468462FEF7B6FA4F
:1029900000211648FFF704FA00211448FFF7DAF97E
:1029A0001248FFF7B7F94FF4C06011901220CDE93B
:1029B00012040720CDE9144011A94FF09040FEF712
:1029C00053F9002211462520FEF7EAFA2520FEF7EA
:1029D000DAFA064901228C310448FFF7DBFA18B015
:1029E00010BD0000001002400038014048000020E7
:1029F000FEE770477047000010B5084C607938B1A9
:102A0000012804D1002000F097F90020607110BD6A
:102A1000642000F091F90120F8E700000800002090
:102A200030B501210020FFF77BFE4FF47A70FEF7EE
:102A300020F800210120FFF773FE41F29071102071
:102A4000FFF76EFE4FF41C516020FFF769FE012175
:102A50006120FFF765FE02214620FFF761FE48F284
:102A600010011320FFF75CFE48F2FE011220FFF771
:102A700057FE4FF4A0610220FFF752FE41F23001F1
:102A80000320FFF74DFE40F2033421463020FFF7CC
:102A900047FE21463120FFF743FE21463220FFF753
:102AA0003FFEE51E29463320FFF73AFE032134207E
:102AB000FFF736FE21463520FFF732FE142136207F
:102AC000FFF72EFE21463720FFF72AFE2146382049
:102AD000FFF726FE21463920FFF722FE29463A203D
:102AE000FFF71EFE03213B20FFF71AFE21463C2084
:102AF000FFF716FE4FF4A0513D20FFF711FE4FF4F3
:102B000000719220FFF70CFE21469320FFF708FE8C
:102B100040F60D019020FFF703FE41F2180103205B
:102B2000FFF7FEFDBDE8304040F273110720FFF7CC
:102B3000F7BD10B543F20801E320FFF7F1FD1221C4
:102B4000E720FFF7EDFD41F23121EF20FFF7E8FD2F
:102B500000210120FFF7E4FD4FF4E0610220FFF7C0
:102B6000DFFD41F230010320FFF7DAFD00210420F0
:102B7000FFF7D6FD40F207210820FFF7D1FD002125
:102B80000920FFF7CDFD00210A20FFF7C9FD002134
:102B90000C20FFF7C5FD00210D20FFF7C1FD00212E
:102BA0000F20FFF7BDFD00211020FFF7B9FD072121
:102BB0001120FFF7B5FD00211220FFF7B1FD002124
:102BC0001320FFF7ADFDC820FEF73CF841F29061FD
:102BD0001020FFF7A5FD40F227211120FFF7A0FDEF
:102BE0003220FEF72FF81D211220FFF799FD322029
:102BF000FEF728F84FF400611320FFF791FD142130
:102C00002920FFF78DFD0B212B20FFF789FD3220B6
:102C1000FEF718F800212020FFF782FD0021212077
:102C2000FFF77EFD07213020FFF77AFD40F20771A4
:102C30003120FFF775FD06213220FFF771FD40F2CC
:102C400004713520FFF76CFD41F604713620FFF763
:102C500067FD04213720FFF763FD00213820FFF7CF
:102C60005FFD40F206713920FFF75AFD40F2017115
:102C70003C20FFF755FD0F213D20FFF751FD0021BE
:102C80005020FFF74DFDEF215120FFF749FD0021B6
:102C90005220FFF745FD40F23F115320FFF740FD62
:102CA0004FF41C516020FFF73BFD01216120FFF72D
:102CB00037FD00216A20FFF733FD00218020FFF758
:102CC0002FFD00218120FFF72BFD00218220FFF73F
:102CD00027FD00218320FFF723FD00218420FFF73B
:102CE0001FFD00218520FFF71BFD10219020FFF71D
:102CF00017FD00219220FFF713FD03219320FFF71A
:102D00000FFD4FF488719520FFF70AFD00219720F1
:102D1000FFF706FD00219820FFF702FD41F21801A0
:102D20000320FFF7FDFCBDE8104040F273110720BF
:102D3000FFF7F6BC7047000010B5044600210848B4
:102D4000FEF792FF064800224C30014644604C38A2
:102D5000FEF790FEBDE8104000210148FEF71ABFC3
:102D600070010020FEF774B800B593B038216846B2
:102D7000FDF798FA14210EA8FDF794FA4FF40070AD
:102D8000FEF740F90220C101039140210491009017
:102D9000079008901421CDE909010B900C900D903B
:102DA0006846FEF71BFC0F200E9003200F900020BA
:102DB00010901190129003210EA8FEF7C5FA13B0DF
:102DC00000BD00000548016841F47001016003493D
:102DD0004FF00060803908607047000088ED00E027
:102DE0002DE9F0430268234B234D244E244C4FF031
:102DF0008049984207D0484505D0A84203D0B04248
:102E000001D0A04203D122F070074A683A431D4F17
:102E1000DFF874C0DFF8748098420DD048450BD0BD
:102E2000A84209D0B04207D0A04205D0B84203D092
:102E3000604501D0404503D122F44075CA682A4359
:102E40004D6922F080022A4302608A68C2620A68E1
:102E50008262984207D0A04205D0B84203D06045B4
:102E600001D0404501D10969016301214161BDE8FB
:102E7000F0830000002C01400004004000080040E6
:102E8000003401400040014000440140004801403E
:102E900010B501F01F030121046A99408C430462BC
:102EA000016A9A401143016210BD00002DE9F04310
:102EB000026A22F001020262056A436882691C4CC0
:102EC00025F0020522400C6822F0030214438A68B0
:102ED000194E2A43174D194FDFF864C0DFF864908C
:102EE000A84207D0B04205D0B84203D0604501D017
:102EF000484506D122F00808CA6842EA080222F0D2
:102F00000402A84207D0B04205D0B84203D06045C1
:102F100001D0484505D14D6923F440731D438B69A9
:102F20002B4343608461496841630262BDE8F083DA
:102F30008FFFFEFF002C01400034014000400140A3
:102F40000044014000480140F0B5026A22F010023E
:102F50000262056A42688369194C1B4E23400C6863
:102F600023F4407343EA042425F020038D6843EAE8
:102F70000513144DA84201D0B04206D1CF6823F00A
:102F8000800343EA071323F04003A8420AD0B0426B
:102F900008D00E4DA84205D00D4DA84202D00D4DCF
:102FA000A84207D14D6922F4406242EA85028D6948
:102FB00042EA850242608461496881630362F0BD30
:102FC000FF8FFFFE002C0140003401400040014013
:102FD0000044014000480140F0B5026A22F48072CA
:102FE0000262056A4368C269194C1B4E22400C6894
:102FF00022F00302144325F400728D6842EA052290
:10300000144DA84201D0B04206D1CF6822F400622C
:1030100042EA072222F48062A8420AD0B04208D0D5
:103020000E4DA84205D00E4DA84202D00D4DA8422B
:1030300007D14D6923F4405343EA05138D6943EAF0
:1030400005134360C4614968C1630262F0BD0000BA
:103050008FFFFEFF002C0140003401400040014082
:103060000044014000480140F0B5026A22F4805259
:103070000262056A4268C369194C1B4E23400C6802
:1030800023F4407343EA042425F400538D6843EA93
:103090000533144DA84201D0B04206D1CF6823F4C5
:1030A000004343EA073323F48043A8420AD0B042E6
:1030B00008D00E4DA84205D00D4DA84202D00D4DAE
:1030C000A84207D14D6922F4404242EA85128D6937
:1030D00042EA85124260C461496801640362F0BD3E
:1030E000FF8FFFFE002C01400034014000400140F2
:1030F000004401400048014030B5026A22F48032A9
:103100000262046A4268036D114D2B400D681D4335
:1031100024F400330C8943EA04430E4CA0420BD044
:103120000D4CA04208D00D4CA04205D00C4CA04242
:1031300002D00C4CA04204D14C6922F4803242EA05
:1031400004224260056549688164036230BD000065
:103150008FFFFEFF002C0140003401400040014081
:10316000004401400048014030B5026A22F4801258
:103170000262046A4268036D114D24F400142B406E
:103180000D6843EA05230D8944EA05540D4DA84214
:103190000BD00D4DA84208D00C4DA84205D00C4DC7
:1031A000A84202D00B4DA84204D14D6922F48022DE
:1031B00042EA8522426003654968C164046230BD09
:1031C000FF8FFFFE002C0140003401400040014011
:1031D00000440140004801403FB514A1D1E900215D
:1031E000CDE9002113A2D2E90012CDE90212416E0D
:1031F000B9B1026891689268C1F34261520F1DF83B
:103200000240E50002ACA25CB5FBF2F2A0F86A2035
:103210001DF80120615CD200B2FBF1F1A0F868104A
:103220003FBD0121A0F86A10F8E700000101010389
:1032300007010000080402040801010190F82810A9
:10324000C90706D001684A68C36A22F400321A43EB
:103250004A6090F82810890706D501684A68036B10
:1032600022F480321A434A6090F82810490706D5A4
:1032700001684A68436B22F480221A434A6090F83E
:103280002810090706D501684A68836B22F40042BA
:103290001A434A6090F82810C90606D501688A6862
:1032A000C36B22F480521A438A6090F82810890672
:1032B00006D501688A68036C22F400521A438A60BA
:1032C00090F82810490611D501684A68436C22F429
:1032D00080121A434A60416CB1F5801F06D1016823
:1032E0004A68836C22F4C0021A434A6090F828109E
:1032F000090606D501684A68C06C22F40022024320
:103300004A607047F8B500260446C0F88860FDF7AB
:1033100099FD0546206800686FF07E47000708D5D4
:103320002B4600224FF400112046009700F009FDC3
:1033300060B92068006840070AD52B4600224FF488
:1033400080012046009700F0FCFC08B10320F8BD86
:103350002020C4F88000C4F8840084F87C60002039
:10336000F8BD10B5806A0021A0F85E10A0F85610D4
:10337000FEF73EFD10BD000001680A6822F490725D
:103380000A6001688A68044B1A408A602021C0F8EC
:1033900084100021C1667047FEFFFFEF10B5B0F842
:1033A0006020D0F884300168222B04D0886940F076
:1033B0000800886110BD496A836D11401980816DD4
:1033C000891C8165B0F85E10491EA0F85E10B0F847
:1033D0005E100029EED101680A6822F490720A603A
:1033E00001688A6822F001028A602021C0F88410F6
:1033F0000021C166FEF74CFE10BD000070B504460A
:10340000B0F86060D0F88400222805D02068816977
:1034100041F00801816170BDB4F8685023E0206874
:10342000406AA16D30400880A06D801CA065B4F892
:103430005E00401EA4F85E00B4F85E0088B9206803
:10344000016821F48071016020688168114A11408F
:1034500081602020C4F884000020E0662046FEF74A
:1034600017FE6D1EADB2002DD9D1B4F85E00002854
:10347000D1D0B4F868108142CDD92068816821F09C
:10348000805181600448E0662068016841F02001B5
:10349000016070BDFEFFFFEF9D33000810B5B0F86E
:1034A0006020D0F884300168222B04D0886940F075
:1034B0000800886110BD496A1140826D1170816DEC
:1034C000491C8165B0F85E10491EA0F85E10B0F886
:1034D0005E100029EED101680A6822F490720A6039
:1034E00001688A6822F001028A602021C0F88410F5
:1034F0000021C166FEF7CCFD10BD000070B504468A
:10350000B0F86060D0F88400222805D02068816976
:1035100041F00801816170BDB4F8685023E0206873
:10352000406AA16D30400870A06D401CA065B4F8E1
:103530005E00401EA4F85E00B4F85E0088B9206802
:10354000016821F48071016020688168114A11408E
:1035500081602020C4F884000020E0662046FEF749
:1035600097FD6D1EADB2002DD9D1B4F85E000028D4
:10357000D1D0B4F868108142CDD92068816821F09B
:10358000805181600448E0662068016841F02001B4
:10359000016070BDFEFFFFEF9D3400082DE9F05F74
:1035A0000446016880682369E56918436369002758
:1035B0002B431843636EFA4A03430868F94D2840C9
:1035C0001843086020684168E36821F440511943BA
:1035D00041602168A069914201D0236A18438B6839
:1035E000F14D2B4003438B602068C16A636A21F070
:1035F0000F011943C162ED4B2068ED4998420DD18E
:10360000D1F8881011F0030106D001295AD00229FF
:1036100056D003293FD157E001253DE0E54B9842C4
:103620000BD1D1F8881011F00C0147D0042949D0F2
:10363000082945D00C292ED146E0DF4B98420BD10A
:10364000D1F8881011F0300138D010293AD0202953
:1036500036D030291FD137E0D84B98420BD1D1F862
:10366000881011F0C00129D040292BD0802927D003
:10367000C02910D128E090420DD1D1F8881011F462
:1036800040611BD0B1F5806F1CD0B1F5006F17D031
:10369000B1F5406F18D01025DFF824A34FF48076E1
:1036A0004FF000094FF4004B90426ED175B1022DDE
:1036B00029D0042D59D0082D68D176E00025EBE7FC
:1036C0000225E9E70425E7E70825E5E7FDF72AFFF6
:1036D0004DE0012851D0022851D0032851D00428B0
:1036E00051D0052853D0062853D0072853D0082896
:1036F00053D0092853D00A2853D00B2853D03AE08E
:10370000B1FBF0F06CE0606AA8B1012817D0022884
:1037100017D0032817D0042817D0052817D006285B
:1037200017D0072817D0082817D0092817D00A283B
:1037300017D00B2817D00120BAFBF0F050E0022080
:10374000FAE70420F8E70620F6E70820F4E70A2065
:10375000F2E70C20F0E71020EEE72020ECE7402015
:10376000EAE78020E8E73046E6E7FDF7FFFE01469E
:10377000606A0028ADD10120C2E70220C0E7042022
:10378000BEE70620BCE70820BAE761E14AE00A206C
:10379000B6E70C20B4E71020B2E72020B0E74020C5
:1037A000AEE78020ACE73046AAE7606AA8B10128FE
:1037B00022D0022822D0032822D0042822D0052893
:1037C00022D0062822D0072822D0082822D0092873
:1037D00022D00A2822D00B2822D00120BBFBF0F0F7
:1037E000002820D06168884601EB4101814219D848
:1037F000B0EB083F16D817E00220EFE70420EDE712
:103800000620EBE70820E9E70A20E7E70C20E5E7D8
:103810001020E3E72020E1E74020DFE78020DDE71C
:103820003046DBE7012739E27DB3022D61D0042D5C
:103830007DD0082DF6D1606AA8B1012878D0022881
:1038400077D0032876D0042875D0052874D00628B0
:1038500073D0072872D0082871D0092870D00A28A0
:103860006FD00B2800D0012632464D460023584623
:103870000021FCF7CDFC090241EA106102024FEA87
:10388000580010186941424670E0FFE7FDF74AFE14
:103890000146606AA8B1012817D0022817D0032872
:1038A00017D0042817D0052817D0062817D00728C6
:1038B00017D0082817D0092817D00A2817D00B28A6
:1038C00000D0012632464D468CE00226FAE7042657
:1038D000F8E70626F6E70826F4E70A26F2E70C26BC
:1038E000F0E71026EEE72026ECE74026EAE7802600
:1038F000E8E7606AA8B1012824D0022824D0032870
:1039000024D0042824D0052824D0062824D0072831
:1039100024D0082824D0092824D00A2824D00B2811
:1039200000D0012632464D4600235046A0E726E04F
:103930007AE07BE07CE07DE07EE07FE080E081E09B
:1039400082E083E00226EDE70426EBE70626E9E7BE
:103950000826E7E70A26E5E70C26E3E71026E1E775
:103960002026DFE74026DDE78026DBE70023FCF7A3
:103970004FFC144AA0F54071914271D952E7FDF70E
:10398000F5FD0146606A50B3012839D0022839D0CC
:10399000032839D0042839D0052839D0062813E067
:1039A00000800040F369FFCFFFF4FF1100380140B1
:1039B000001002400044004000480040004C00401D
:1039C0000024F400FFFC0F0024D0072824D008288E
:1039D00024D0092824D00A2824D00B2800D001267E
:1039E0004D463246002308461946FCF711FC0902F1
:1039F000626841EA10610302500818186941B5E78E
:103A00000226EDE70426EBE70626E9E70826E7E7C6
:103A10000A26E5E70C26E3E71026E1E72026DFE7A4
:103A20004026DDE78026DBE702261DE704261BE7AC
:103A3000062619E7082617E70A2615E70C2613E7D6
:103A4000102611E720260FE740260DE780260BE71A
:103A5000E0694FF6EF78584570D1092D8ED200E01D
:103A60001AE1DFE805F006093C058005050583003D
:103A7000D8E6FDF757FD01E0FDF766FD0146606AF7
:103A8000A8B1012815D0022815D0032815D0042884
:103A900015D0052815D0062815D0072815D00828D8
:103AA00015D0092815D00A2815D00B2814D00126C6
:103AB00012E0022610E004260EE006260CE008269E
:103AC0000AE00A2608E00C2606E0102604E020267C
:103AD00002E0402600E08026B1FBF6F01AE0606AC2
:103AE000A8B101282BD002282BD003282BD00428E2
:103AF0002BD005282BD006282BD007282BD0082820
:103B00002BD009282BD00A282BD00B2800D0012637
:103B1000BAFBF6F04100606801EB5001B1FBF0F038
:103B200080B2A0F110014145A2D84FF6F0710140DA
:103B3000C0F3420001432068C160AFE046E00226C6
:103B4000E6E70426E4E70626E2E70826E0E70A2699
:103B5000DEE70C26DCE71026DAE72026D8E7402649
:103B6000D6E78026D4E7FDF701FD87E7606AA8B1B4
:103B7000012817D0022817D0032817D0042817D0FF
:103B8000052817D0062817D0072817D0082817D0DF
:103B9000092817D00A2817D00B2800D00126BBFB14
:103BA000F6F0B7E70226FAE70426F8E70626F6E776
:103BB0000826F4E70A26F2E70C26F0E71026EEE7DF
:103BC0002026ECE74026EAE78026E8E7092DBFF447
:103BD000D5AEDFE805F006093C058305050586003E
:103BE00020E6FDF79FFC01E0FDF7AEFC0146606AB0
:103BF000A8B1012815D0022815D0032815D0042813
:103C000015D0052815D0062815D0072815D0082866
:103C100015D0092815D00A2815D00B2814D0012654
:103C200012E0022610E004260EE006260CE008262C
:103C30000AE00A2608E00C2606E0102604E020260A
:103C400002E0402600E08026B1FBF6F11AE0606A4F
:103C5000A8B101282ED002282ED003282ED0042867
:103C60002ED005282ED006282ED007282ED00828A2
:103C70002ED009282ED00A282ED00B2800D00126BD
:103C8000BAFBF6F1606801EB5001B1FBF0F080B2D5
:103C9000A0F110014145A3D82168C8600120A4F813
:103CA0006A0024F8680F3846C4F80490C4F80890F5
:103CB000BDE8F09F0226E3E70426E1E70626DFE7FA
:103CC0000826DDE70A26DBE70C26D9E71026D7E72A
:103CD0002026D5E74026D3E78026D1E7FDF746FC2E
:103CE00084E7606AA8B1012817D0022817D00328FA
:103CF00017D0042817D0052817D0062817D0072872
:103D000017D0082817D0092817D00A2817D00B2851
:103D100000D00126BBFBF6F1B4E70226FAE7042641
:103D2000F8E70626F6E70826F4E70A26F2E70C2667
:103D3000F0E71026EEE72026ECE74026EAE78026AB
:103D4000E8E72DE9F041984617460E460446069DE1
:103D500008E0681C06D0FDF775F8A0EB0800A84243
:103D60000BD855B12068C06936EA000019D0002090
:103D7000B842EED00020BDE8F0812068016821F44F
:103D8000D07101602068816821F0010181602020EC
:103D9000C4F88000C4F88400002084F87C0003206C
:103DA000E9E70120E4E700000148FEF723B800003E
:103DB00048000020FEE700000FB4054B10B503A932
:103DC000044A029800F0EAF810BC5DF814FB000009
:103DD000CD460008440000200907090E002804DB36
:103DE00000F1E02080F80014704700F00F0000F1AF
:103DF000E02080F8141D704702E008C8121F08C1B7
:103E0000002AFAD170477047002001E001C1121F5B
:103E1000002AFBD1704700002DE9FF5F82B000212E
:103E2000DDE90430020DDDF840B0034318D044F65C
:103E30001050A2F2FF3242431514119801281FD0EE
:103E4000A5EB0B00401C5FEA000A4FF000064E4F46
:103E5000DFF83891B046504615D5CAF1000413E09A
:103E6000119801244AA3012801D16FEA0B0102989D
:103E7000119AC0E90031C0E9024206B0BDE8F09FE6
:103E8000CBF10000DFE704460021404A491842EB2D
:103E90000450CDE9001012E0E00707D032463B465F
:103EA00040464946FCF7F5FB8046894632463B468C
:103EB00010461946FCF7EDFB06460F466410002C31
:103EC000EAD1DDE90401DDE90023BAF1000F06DAE9
:103ED000FCF7DFFB42464B46FCF7DBFB05E0FCF75B
:103EE00093FA42464B46FCF78FFA04460E460022F0
:103EF000284BFCF759FC03D84FF0FF30014607E090
:103F00000022254B20463146FCF7D7F9FCF733FC5D
:103F1000102409E0002C0ADB0A220023FCF778F9C0
:103F2000039B30321A55641E50EA0102F2D1641C20
:103F3000039AC4F111031444119A012A03D00122F7
:103F400008430DD10AE0084304D000204FF0110BC4
:103F5000119072E7A3EB0B056D1E0DE05B4504DDD0
:103F60004FF0000205F1010504E003DA4FF0000212
:103F7000A5F10105002AECD002981199C0E902319F
:103F8000C0E9004579E70000000014400000F03F60
:103F9000300000000000F0430000E03F2DE9FF4F3B
:103FA00095B09B468946064600250FE2252877D125
:103FB00000242746F84A0121059400E0044316F83E
:103FC000013F203B01FA03F01042F7D130782A2854
:103FD00011D06FF02F033078A0F13002092A16D8E3
:103FE000059A44F0020402EB820203EB4202104401
:103FF000761C0590EFE759F8042B0592002A03DAA6
:10400000504244F40054059044F00204761C307889
:104010002E2816D116F8010F44F004042A280DD0DA
:104020006FF02F023078A0F13003092B09D807EB8D
:10403000870302EB4303C718761CF3E759F8047BA8
:10404000761C30786C280FD006DC4C2817D06828F6
:104050000DD06A2814D104E0742810D07A280FD12A
:104060000DE044F400140AE044F4801401E044F448
:1040700040147278824202D104F58014761C761CBA
:10408000307866280BD013DC582877D009DC00285C
:1040900075D04528F6D04628F4D047281AD19DE19E
:1040A00018E0632835D0642879D0652812D195E1CD
:1040B000702873D008DC6728F1D069286FD06E288B
:1040C0000DD06F2806D1B5E073282CD0752875D097
:1040D000782874D05A46179990476D1C75E1C4F33F
:1040E0000250022809D003280DD0D9F80010042866
:1040F0000DD00D6009F1040967E1D9F80010EA1745
:10410000C1E90052F6E7D9F800100D80F2E70D7012
:10411000F0E719F8041B8DF8001000208DF801005D
:10412000EA46012003E059F804AB4FF0FF30610785
:104130004FF0000102D40DE008F101018846B942B8
:104140000FDA8045F8DB1AF808100029F4D108E0EE
:1041500008F1010188468142FADB1AF808100029AB
:10416000F6D105985B46A0EB080721463846179A1A
:1041700000F094FA284400EB080507E04DE029E13F
:104180000DE01AF8010B5A4617999047B8F101084B
:10419000F7D25B4621463846179A13E142E00A22DD
:1041A0000092C4F302524FF0000A022A08D059F8D4
:1041B00004CB032A4FEAEC710AD00DE029E02AE093
:1041C00009F1070121F00702F2E802C1914609E076
:1041D0000FFA8CFC4FEAEC71042A03D14FFA8CFCE5
:1041E0004FEAEC71002907DA0A460021DCF1000CE5
:1041F00061EB02012D2202E0220504D52B228DF86D
:104200000420012203E0E20701D02022F7E79046D4
:1042100059E00A2102E010220DE010214FF0000ABF
:1042200000910BE010224FF0000A44F0040408272C
:10423000009203E008224FF0000A0092C4F30252F9
:10424000022A05D059F804CB0021032A08D009E03E
:1042500009F1070121F00702F2E802C1914605E0E9
:104260001FFA8CFC042A01D10CF0FF0C4FF000085F
:10427000220728D5702806D0009B83F0100353EA4C
:104280000A0305D00EE040228DF80420012208E048
:104290005CEA010206D030228DF804208DF805007A
:1042A00002229046009B83F0080353EA0A030AD1D6
:1042B0005CEA010201D1620705D530228DF80420A5
:1042C0004FF001087F1E582804D034A003900EA898
:1042D00002900DE036A0F9E753466046009AFBF7DE
:1042E00097FF84460398825C0298401E02900270F9
:1042F0005CEA0100F0D1029806A9081A00F1200A30
:10430000600702D524F4803400E00127574502DD20
:10431000A7EB0A0000E0002000EB0A0100900598DE
:104320004144401A0590E00306D45B462146179AA3
:10433000059800F0B3F90544002706E001A85A46A5
:10434000C05D179990476D1C7F1C4745F6DBE00365
:104350000CD55B462146179A059800F09FF9054455
:1043600004E030205A46179990476D1C0099481E6A
:1043700000900029F5DC08E0029802995A4600787E
:10438000491C0291179990476D1CBAF10001AAF1DE
:10439000010AF1DC65E10000092801003031323307
:1043A0003435363738396162636465660000000071
:1043B000303132333435363738394142434445465B
:1043C0000000000000F058F90544761C3078002801
:1043D0007FF4ECAD19B02846BDE8F08F620700D439
:1043E000062709F1070222F0070CFCE80223E14648
:1043F00003F000485FEA080C02D00FF2702C0DE0C9
:104400005FEA045C02D50FF2682C07E05FEAC47C27
:1044100002D00FF2602C01E0AFF2700C4FF0FF38C9
:1044200023F00043CDF850C065280CD006DC4528A9
:1044300009D046281DD047283DD13DE0662818D038
:1044400067287ED138E00021112F01DB112000E028
:10445000781CCDE9000106A90EA8FFF7DDFCDDE917
:104460000F010E9A03910021009207F1010A0491B5
:104470004DE04FF000400097CDE9011006A90EA8CD
:10448000FFF7CAFCDDE90F0203920E9B119900228F
:10449000DDF80CA00093049211B9791C00EB010A1D
:1044A000B7EB0A0004D4C0F1FF3007F1010A049011
:1044B000AAEB0700019044E0012F00DA0127002158
:1044C000112F01DD112000E03846CDE9000106A9D9
:1044D0000EA8FFF7A1FCDDE90F010E9A0391002160
:1044E00004910092BA4621070CD40399514500DA91
:1044F0008A46BAF1010F05DD009AAAF10101515C6B
:10450000302908D0B84202DA10F1040F06DA01218E
:10451000CDE9011015E0AAF10101E9E7002805DC69
:10452000049901440491AAEB000102E0411C5145A9
:1045300000DD8A460499401A401C01904FF000406B
:104540000290200704D40198504501DBCDF8048087
:1045500000208DF84F0002980DF14F07B0F1004F89
:1045600025D02B200E9002984FF0020800280CDA7C
:10457000404202902D200E9007E00A210298FBF79E
:10458000E4FF3031029007F8011DB8F10001A8F1F5
:104590000108F2DC02980028EFD1791E0E9808700D
:1045A000307800F0200040F0450007F8020D12A816
:1045B000C01B00F107081498007800B1012000EB3F
:1045C0000A01019801EBE07105984144401A401E30
:1045D0000590E00306D45B462146179A059800F043
:1045E0005DF805441498007818B15A461799904719
:1045F0006D1CE00324D55B462146179A059800F010
:104600004DF805441CE00498002807DBDDE90301B0
:10461000884203DD0098405C179901E0179930202B
:104620005A469047049805F10105401C04900198F2
:10463000401E019004D12E205A46179990476D1CB8
:10464000BAF10001AAF1010ADDDC05E017F8010B5F
:104650005A46179990476D1CB8F10001A8F101085E
:10466000F4DC5B462146179A0598ABE62D00000066
:104670002B000000200000002DE9F0410446002539
:104680001E461746880404D405E039462020B0476A
:104690006D1C641EF9D52846BDE8F0812DE9F04176
:1046A000044600251E469046C80301D5302700E089
:1046B0002027880404D505E041463846B0476D1CE4
:1046C000641EF9D52846BDE8F081000038B50446DF
:1046D0008DF800003223012269460248FDF72EFDC5
:1046E000204638BD4800002010B586B01421684629
:1046F000FBF7D8FD1248C16C41F00101C164C16CE7
:1047000001F001010591C16C41F00201C164C06C6E
:10471000002400F0020005900120CDE90004694664
:104720004FF090400294FCF79FFA0720CDE9000477
:10473000694604480294FCF797FA06B010BD0000E1
:10474000001002400004004870B54FF09045012170
:104750002846FCF76DFB264C70B101212046FCF782
:1047600067FB48B102212046FCF762FB20B104211F
:104770002046FCF75DFBB0B91420FCF763FA012179
:104780002046FCF755FB80B102212046FCF750FB88
:1047900098B104212046FCF74BFBB0B1012128461B
:1047A000FCF746FBD0B1002070BD01250121204659
:1047B000FCF73EFB0028F9D00EE00225022120463E
:1047C000FCF736FB0028F9D006E00325042120463B
:1047D000FCF72EFB0028F9D0284670BD04240121E7
:1047E0002846FCF725FB0028F9D0204670BD0000C4
:1047F000000400480C4910B580228240088802431A
:1048000090B2088009490A68D2B202430A60084C93
:10481000012204212046FCF710FB20460022BDE8BF
:1048200010400421FCF709BB1800002014080048C0
:10483000000C00480C4910B5802282400888904343
:1048400008800A490A68D2B202430A60084C012271
:1048500004212046FCF7F1FA20460022BDE8104072
:104860000421FCF7EABA00001800002014080048F0
:10487000000C0048FBF7C2FFFEE700002DED028BA5
:1048800000F068F800F09AF80126274CB6EE008A8E
:10489000FDF77CFFFDF786FF2670FFF755FF012827
:1048A00004D00428F4D1FEF7A7F8F1E700F0A4F84B
:1048B00000F0CCF802254FF07C5700BFFDF766FFF3
:1048C000FDF770FF2570FFF73FFF012808D0022891
:1048D0000BD0032814D00428F0D1FEF78DF8EDE7B3
:1048E00000F038F800F06AF8D2E794ED020A30EEF2
:1048F000080A84ED020A94ED030A30EE080A0DE07E
:1049000094ED030A10EE100AB842D7DBD4ED020A88
:1049100030EE480A70EEC80AC4ED020A84ED030ABC
:1049200000F094F8CAE700000800002008480021C1
:10493000082241708170C2700271B0EE0C0A80EDE5
:10494000020AB0EE000A80ED030A4171FFF7CCBE07
:104950000800002010B50020FDF77EFC0020FDF7C8
:1049600069FE4FF6FF70FDF779FE0CA2CE211820EC
:10497000FDF7C2FD4FF487740AA221464820FDF7D7
:10498000BBFD0AA221467820FDF7B6FD2146BDE811
:10499000104008A2A820FDF7AFBD0000446174617B
:1049A00000000000434E42523A000000564E425270
:1049B0003A00000049444C453A00000010B50D4C47
:1049C000012320796278A178801A401AE070BE2114
:1049D0004820FDF79BFC0123A278BE217820FDF73B
:1049E00095FCE2780123BE21BDE81040A820FDF728
:1049F0008DBC00000800002010B50020FDF72CFC45
:104A00000020FDF717FE4FF6FF70FDF727FE09A205
:104A1000CE211820FDF770FD4FF4877407A22146C0
:104A20004820FDF769FD2146BDE8104005A2782029
:104A3000FDF762BD5061726100000000434E4252BA
:104A40003A000000564E42523A00000010B5084CA1
:104A50000222BE2194ED020A4820FDF791FC94ED5C
:104A6000030A0222BE21BDE810407820FDF788BC71
:104A7000080000200000000000000000000000000E
:104A80000000000000000000000000000000000026
:104A90000000000000000000000000000000000016
:104AA0000000000000008001800180018001800181
:104AB00080018001800180018001800180018001EE
:104AC00000000000800180010000000000000000E4
:104AD0000000000000000000CC00CC00CC00CC00A6
:104AE000CC00CC000000000000000000000000002E
:104AF00000000000000000000000000000000000B6
:104B000000000000000000000000000000000000A5
:104B1000600C600C600C30063006FE1FFE1F300675
:104B200038071803FE1FFE1F180318038C018C01A1
:104B30008C01000000008000E003F80F9C0E8C1C2C
:104B40008C188C009800F801E007800E801C8C18EF
:104B50008C189C18B80CF00FE00380008000000057
:104B6000000000000000000000000E181B0C110CDB
:104B700011061106110311039B018E01C038C06C90
:104B800060446044304430441844186C0C380000D1
:104B9000000000000000E001F003380718061806C6
:104BA0003003F001F000F8009C310E33061E061CA5
:104BB000061C063FFC73F02100000000000000000E
:104BC00000000000000000000C000C000C000C00B5
:104BD0000C000C00000000000000000000000000BD
:104BE00000000000000000000000000000000000C5
:104BF000000000000000000200038001C000C000AF
:104C000060006000300030003000300030003000C4
:104C10003000300060006000C000C0008001000370
:104C200000020000000020006000C0008001800140
:104C3000000300030006000600060006000600064A
:104C4000000600060003000380018001C000600030
:104C50002000000000000000000000000000000034
:104C6000C000C000D806F807E00130033807000094
:104C70000000000000000000000000000000000034
:104C80000000000000000000000000000000000024
:104C900080018001800180018001FC3FFC3F800198
:104CA0008001800180018001000000000000000000
:104CB00000000000000000000000000000000000F4
:104CC00000000000000000000000000000000000E4
:104CD0000000000000008001800100010001800050
:104CE00000000000000000000000000000000000C4
:104CF000000000000000000000000000E007E007E6
:104D000000000000000000000000000000000000A3
:104D10000000000000000000000000000000000093
:104D20000000000000000000000000000000000083
:104D3000000000000000C000C000000000000000F3
:104D4000000000000000000C000C00060006000639
:104D50000003000300038003800180018001C00084
:104D6000C000C00060006000000000000000000003
:104D7000000000000000E003F007380E180C0C18CB
:104D80000C180C180C180C180C180C180C180C1803
:104D9000180C380EF007E0030000000000000000CF
:104DA00000000000000000018001C001F001980136
:104DB00088018001800180018001800180018001E3
:104DC00080018001800180010000000000000000DF
:104DD000000000000000E003F80F180C0C180C187D
:104DE00000180018000C000600038001C0006000DD
:104DF00030001800FC1FFC1F000000000000000035
:104E0000000000000000E001F807180E0C0C0C0C6C
:104E1000000C0006C003C007000C001800180C1896
:104E20000C18180CF807E003000000000000000058
:104E3000000000000000000C000E000F000F800DAD
:104E4000C00C600C600C300C180C0C0CFC3FFC3FD0
:104E5000000C000C000C000C000000000000000022
:104E6000000000000000F80FF80F180018000C00F8
:104E7000EC03FC071C0E001C0018001800180C188E
:104E80001C0C180EF807E0030000000000000000F2
:104E9000000000000000C007F00F381C18181800B0
:104EA0000C00CC03EC0F3C0E1C1C0C180C180C183E
:104EB000181C380EF007E00300000000000000009E
:104EC000000000000000FC1FFC1F000C0006000694
:104ED000000380038001C001C000E00060006000AA
:104EE00070003000300030000000000000000000C2
:104EF000000000000000E003F007380E180C180C4A
:104F0000180C3806F007F007180C0C180C180C18C1
:104F10000C18380CF80FE00300000000000000003F
:104F2000000000000000E003F007380E1C0C0C1815
:104F30000C180C181C1C381EF81BE0190018000C6B
:104F4000000C1C0EF807F00100000000000000003B
:104F50000000000000000000000000000000000051
:104F6000800180010000000000000000000000003F
:104F7000000000008001800100000000000000002F
:104F80000000000000000000000000000000000021
:104F9000800180010000000000000000000000000F
:104FA000000000008001800100010001800000007D
:104FB00000000000000000000000000000000000F1
:104FC000000000000010001C800FE003F800180033
:104FD000F800E003800F001C00100000000000003B
:104FE00000000000000000000000000000000000C1
:104FF00000000000F81F000000000000F81F000083
:1050000000000000000000000000000000000000A0
:105010000000000000000000000000000000000090
:105020000000000008003800F001C007001F001851
:10503000001FC007F0013800080000000000000059
:10504000000000000000E003F80F180C0C180C180A
:105050000018000C000600038001C000C000C00062
:1050600000000000C000C0000000000000000000C0
:105070000000000000000000E00718180420C2290A
:10508000224A114409440944094409221113E20C3B
:10509000024004201818E007000000000000000093
:1050A00000000000000080038003C006C006C006A8
:1050B000600C600C301830183018F83FF83F1C7046
:1050C0000C600C6006C006C000000000000000007C
:1050D000000000000000FC03FC0F0C0C0C180C1866
:1050E0000C180C0CFC07FC0F0C180C300C300C309E
:1050F0000C300C18FC1FFC07000000000000000032
:10510000000000000000C007F01F38381C300C7091
:10511000066006000600060006000600060006609F
:105120000C701C30F01FE0070000000000000000C1
:10513000000000000000FE03FE0F060E0618061811
:1051400006300630063006300630063006300618C7
:105150000618060EFE0FFE0300000000000000000F
:10516000000000000000FC3FFC3F0C000C000C00A5
:105170000C000C00FC1FFC1F0C000C000C000C00B1
:105180000C000C00FC3FFC3F000000000000000091
:10519000000000000000F83FF83F18001800180059
:1051A00018001800F81FF81F180018001800180041
:1051B000180018001800180000000000000000008F
:1051C000000000000000E00FF83F3C780E6006E0B1
:1051D00007C00300030003FE03FE03C007C006C0B0
:1051E0000EC03CF0F83FE00F00000000000000009F
:1051F0000000000000000C300C300C300C300C3083
:105200000C300C30FC3FFC3F0C300C300C300C30C0
:105210000C300C300C300C3000000000000000009E
:1052200000000000000080018001800180018001F9
:105230008001800180018001800180018001800166
:10524000800180018001800100000000000000005A
:105250000000000000000006000600060006000630
:1052600000060006000600060006000600061806F6
:1052700018063807F003E0010000000000000000FD
:1052800000000000000006300618060C06060603A3
:105290008601C60066007600DE008E010603060663
:1052A000060C061806300660000000000000000032
:1052B0000000000000001800180018001800180076
:1052C000180018001800180018001800180018001E
:1052D00018001800F81FF81F000000000000000070
:1052E0000000000000000EE01EF01EF01EF036D898
:1052F00036D836D836D866CC66CC66CCC6C6C6C6D6
:10530000C6C6C6C686C386C30000000000000000F3
:105310000000000000000C301C303C303C306C3091
:105320006C30CC30CC308C310C330C330C360C362A
:105330000C3C0C3C0C380C3000000000000000005D
:10534000000000000000E007F81F1C380E70066027
:1053500003C003C003C003C003C003C003C0066092
:105360000E701C38F81FE00700000000000000006D
:10537000000000000000FC0FFC1F0C380C300C304B
:105380000C300C300C18FC1FFC070C000C000C003F
:105390000C000C000C000C000000000000000000DD
:1053A000000000000000E007F81F1C380E700660C7
:1053B00003E003C003C003C003C003C007E00663EB
:1053C0000E3F1C3CF83FE0F700C00000000000006A
:1053D000000000000000FE0FFE1F063806300630F9
:1053E00006300638FE1FFE0706030606060C0618E2
:1053F00006180630063006600000000000000000BD
:10540000000000000000E003F80F1C0C0C180C1842
:105410000C001C00F803E00F001E003806300630B8
:105420000E301C1CF80FE007000000000000000018
:10543000000000000000FE7FFE7F800180018001EF
:105440008001800180018001800180018001800154
:105450008001800180018001000000000000000048
:105460000000000000000C300C300C300C300C3010
:105470000C300C300C300C300C300C300C300C304C
:105480000C301818F81FE0070000000000000000B2
:1054900000000000000003600630063006300C18E3
:1054A0000C180C18180C180C380E30063006700743
:1054B00060036003C001C0010000000000000000A4
:1054C0000000000000000360C361C361C361663374
:1054D000663366336633663366336C1B6C1B6C1B3A
:1054E0002C1A3C1E380E380E000000000000000090
:1054F0000000000000000FE00C7018303018700C35
:10550000600EC00780038003C003E006700C301CEF
:1055100018180C300E6007E00000000000000000CA
:1055200000000000000003C006600C301C38381872
:10553000300C6006E007C00380018001800180011B
:105540008001800180018001000000000000000057
:10555000000000000000FC7FFC7F006000300018AD
:10556000000C000600038001C0006000300018003D
:105570000C000600FE7FFE7F00000000000000001F
:10558000000000000000E003E00360006000600035
:10559000600060006000600060006000600060000B
:1055A0006000600060006000600060006000E00378
:1055B000E003000000003000300060006000600088
:1055C000C000C000C000C001800180018001000354
:1055D00000030003000600060000000000000000B9
:1055E000000000000000E003E003000300030003EC
:1055F0000003000300030003000300030003000393
:105600000003000300030003000300030003E003A2
:10561000E003000000000000C001C001600360035F
:10562000600330063006180C180C00000000000063
:10563000000000000000000000000000000000006A
:10564000000000000000000000000000000000005A
:10565000000000000000000000000000000000004A
:10566000000000000000FFFFFFFF0000000000003E
:105670000000000000000C000C000C000C000C00EE
:105680000C0000000000000000000000000000000E
:10569000000000000000000000000000000000000A
:1056A00000000000000000000000000000000000FA
:1056B000F003F8071C0C0C0C000FF00FF80C0C0C8E
:1056C0000C0C1C0FF80FF018000000000000000088
:1056D0000000000000001800180018001800180052
:1056E000D803F80F380C18181818181818181818A4
:1056F0001818380CF80FD803000000000000000054
:105700000000000000000000000000000000000099
:10571000C003F007300E180C18001800180018000D
:10572000180C300EF007C00300000000000000005D
:1057300000000000000000180018001800180018F1
:10574000C01BF01F301C1818181818181818181833
:105750001818301CF01FC01B0000000000000000E3
:105760000000000000000000000000000000000039
:10577000C003F00F300C1818F81FF81F180018009D
:105780003818301CF00FC0070000000000000000B7
:10579000000000000000800FC00FC000C000C0006B
:1057A000F007F007C000C000C000C000C000C0008B
:1057B000C000C000C000C0000000000000000000E9
:1057C00000000000000000000000000000000000D9
:1057D000E00DF80F180E0C0C0C0C0C0C0C0C0C0C37
:1057E0000C0C180EF80FE00D000C0C0C1C06F80742
:1057F000F001000000001800180018001800180040
:10580000D807F80F381C181818181818181818186E
:1058100018181818181818180000000000000000C8
:10582000000000000000C000C000000000000000F8
:10583000C000C000C000C000C000C000C000C00068
:10584000C000C000C000C000000000000000000058
:10585000000000000000C000C000000000000000C8
:10586000C000C000C000C000C000C000C000C00038
:10587000C000C000C000C000C000C000C000F800F0
:105880007800000000000C000C000C000C000C0064
:105890000C0C0C060C038C01CC006C00FC009C0171
:1058A0008C030C030C060C0C000000000000000030
:1058B000000000000000C000C000C000C000C00028
:1058C000C000C000C000C000C000C000C000C000D8
:1058D000C000C000C000C0000000000000000000C8
:1058E00000000000000000000000000000000000B8
:1058F0007C3CFF7EC7E383C183C183C183C183C175
:1059000083C183C183C183C1000000000000000087
:105910000000000000000000000000000000000087
:105920009807F80F381C181818181818181818188D
:1059300018181818181818180000000000000000A7
:105940000000000000000000000000000000000057
:10595000C003F00F300C1818181818181818181859
:105960001818300CF00FC003000000000000000009
:105970000000000000000000000000000000000027
:10598000D803F80F380C1818181818181818181801
:105990001818380CF80FD803180018001800180051
:1059A00018000000000000000000000000000000DF
:1059B000C01BF01F301C18181818181818181818C1
:1059C0001818301CF01FC01B001800180018001811
:1059D00000180000000000000000000000000000AF
:1059E000B007F003700030003000300030003000AD
:1059F00030003000300030000000000000000000E7
:105A00000000000000000000000000000000000096
:105A1000E003F003380E180C3800F003C007000C48
:105A2000180C380EF007E003000000000000000032
:105A300000000000000000008000C000C000C000A6
:105A4000F007F007C000C000C000C000C000C000E8
:105A5000C000C000C0078007000000000000000078
:105A60000000000000000000000000000000000036
:105A700018181818181818181818181818181818A6
:105A80001818381CF01FE01900000000000000008A
:105A90000000000000000000000000000000000006
:105AA0000C18180C180C180C300630063006600361
:105AB00060036003C001C00100000000000000009E
:105AC00000000000000000000000000000000000D6
:105AD000C141C141C3616363636363633636363674
